:020000040000fa
:080000000002040000000000f2
:020000040000fa
:040008005a03000097
:020000040000fa
:04000c005a03000093
:020000040000fa
:040010005a0300008f
:020000040000fa
:040014005a0300008b
:020000040000fa
:040018005a03000087
:020000040000fa
:04001c005a03000083
:020000040000fa
:040020005a0300007f
:020000040000fa
:040024005a0300007b
:020000040000fa
:040028005a03000077
:020000040000fa
:04002c005a03000073
:020000040000fa
:040030005a0300006f
:020000040000fa
:040034002a0300009b
:020000040000fa
:040038005a03000067
:020000040000fa
:04003c005a03000063
:020000040000fa
:040040005a0300005f
:020000040000fa
:040044005a0300005b
:020000040000fa
:04004800fa020000b8
:020000040000fa
:04004c005a03000053
:020000040000fa
:040050005a0300004f
:020000040000fa
:040054005a0300004b
:020000040000fa
:040058005a03000047
:020000040000fa
:04005c005a03000043
:020000040000fa
:040060005a0300003f
:020000040000fa
:040064005a0300003b
:020000040000fa
:040068005a03000037
:020000040000fa
:04006c005a03000033
:020000040000fa
:040070005a0300002f
:020000040000fa
:040074005a0300002b
:020000040000fa
:040078005a03000027
:020000040000fa
:04007c005a03000023
:020000040000fa
:040080005a0300001f
:020000040000fa
:040084005a0300001b
:020000040000fa
:040088005a03000017
:020000040000fa
:04008c005a03000013
:020000040000fa
:040090005a0300000f
:020000040000fa
:040094005a0300000b
:020000040000fa
:040098005a03000007
:020000040000fa
:04009c005a03000003
:020000040000fa
:0400a0005a030000ff
:020000040000fa
:0400a4005a030000fb
:020000040000fa
:0400a8005a030000f7
:020000040000fa
:0400ac005a030000f3
:020000040000fa
:0400b0005a030000ef
:020000040000fa
:0400b4005a030000eb
:020000040000fa
:0400b8005a030000e7
:020000040000fa
:0400bc005a030000e3
:020000040000fa
:0400c0005a030000df
:020000040000fa
:0400c4005a030000db
:020000040000fa
:0400c8005a030000d7
:020000040000fa
:0400cc005a030000d3
:020000040000fa
:0400d0005a030000cf
:020000040000fa
:0400d4005a030000cb
:020000040000fa
:0400d8005a030000c7
:020000040000fa
:0400dc005a030000c3
:020000040000fa
:0400e0005a030000bf
:020000040000fa
:0400e4005a030000bb
:020000040000fa
:0400e8005a030000b7
:020000040000fa
:0400ec005a030000b3
:020000040000fa
:0400f0005a030000af
:020000040000fa
:0400f4005a030000ab
:020000040000fa
:0400f8005a030000a7
:020000040000fa
:0400fc005a030000a3
:020000040000fa
:040100005a0300009e
:020000040000fa
:040104005a0300009a
:020000040000fa
:040108005a03000096
:020000040000fa
:04010c005a03000092
:020000040000fa
:040110005a0300008e
:020000040000fa
:040114005a0300008a
:020000040000fa
:040118005a03000086
:020000040000fa
:04011c005a03000082
:020000040000fa
:040120005a0300007e
:020000040000fa
:040124005a0300007a
:020000040000fa
:040128005a03000076
:020000040000fa
:04012c005a03000072
:020000040000fa
:040130005a0300006e
:020000040000fa
:040134005a0300006a
:020000040000fa
:040138005a03000066
:020000040000fa
:04013c005a03000062
:020000040000fa
:040140005a0300005e
:020000040000fa
:040144005a0300005a
:020000040000fa
:040148005a03000056
:020000040000fa
:04014c005a03000052
:020000040000fa
:040150005a0300004e
:020000040000fa
:040154005a0300004a
:020000040000fa
:040158005a03000046
:020000040000fa
:04015c005a03000042
:020000040000fa
:040160005a0300003e
:020000040000fa
:040164005a0300003a
:020000040000fa
:040168005a03000036
:020000040000fa
:04016c005a03000032
:020000040000fa
:040170005a0300002e
:020000040000fa
:040174005a0300002a
:020000040000fa
:040178005a03000026
:020000040000fa
:04017c005a03000022
:020000040000fa
:040180005a0300001e
:020000040000fa
:040184005a0300001a
:020000040000fa
:040188005a03000016
:020000040000fa
:04018c005a03000012
:020000040000fa
:040190005a0300000e
:020000040000fa
:040194005a0300000a
:020000040000fa
:040198005a03000006
:020000040000fa
:04019c005a03000002
:020000040000fa
:0401a0005a030000fe
:020000040000fa
:0401a4005a030000fa
:020000040000fa
:0401a8005a030000f6
:020000040000fa
:0401ac005a030000f2
:020000040000fa
:0401b0005a030000ee
:020000040000fa
:0401b4005a030000ea
:020000040000fa
:0401b8005a030000e6
:020000040000fa
:0401bc005a030000e2
:020000040000fa
:0401c0005a030000de
:020000040000fa
:0401c4005a030000da
:020000040000fa
:0401c8005a030000d6
:020000040000fa
:0401cc005a030000d2
:020000040000fa
:0401d0005a030000ce
:020000040000fa
:0401d4005a030000ca
:020000040000fa
:0401d8005a030000c6
:020000040000fa
:0401dc005a030000c2
:020000040000fa
:0401e0005a030000be
:020000040000fa
:0401e4005a030000ba
:020000040000fa
:0401e8005a030000b6
:020000040000fa
:0401ec005a030000b2
:020000040000fa
:0401f0005a030000ae
:020000040000fa
:0401f4005a030000aa
:020000040000fa
:0401f8005a030000a6
:020000040000fa
:0401fc005a030000a2
:020000040000fa
:040200005a0300009d
:020000040000fa
:040204005a03000099
:020000040000fa
:040208005a03000095
:020000040000fa
:04020c005a03000091
:020000040000fa
:040210005a0300008d
:020000040000fa
:040214005a03000089
:020000040000fa
:040218005a03000085
:020000040000fa
:04021c005a03000081
:020000040000fa
:040220005a0300007d
:020000040000fa
:040224005a03000079
:020000040000fa
:040228005a03000075
:020000040000fa
:04022c005a03000071
:020000040000fa
:040230005a0300006d
:020000040000fa
:040234005a03000069
:020000040000fa
:040238005a03000065
:020000040000fa
:04023c005a03000061
:020000040000fa
:040240005a0300005d
:020000040000fa
:040244005a03000059
:020000040000fa
:040248005a03000055
:020000040000fa
:04024c005a03000051
:020000040000fa
:040250005a0300004d
:020000040000fa
:040254005a03000049
:020000040000fa
:040258005a03000045
:020000040000fa
:04025c005a03000041
:020000040000fa
:040260005a0300003d
:020000040000fa
:040264005a03000039
:020000040000fa
:040268005a03000035
:020000040000fa
:04026c005a03000031
:020000040000fa
:040270005a0300002d
:020000040000fa
:040274005a03000029
:020000040000fa
:040278005a03000025
:020000040000fa
:04027c005a03000021
:020000040000fa
:040280005a0300001d
:020000040000fa
:100400006f0121000eff2c000e018800000000008b
:10041000000020000000e000020032000001200087
:100420002002880014000700a40007000000e0007c
:1004300003003a00208a200001002000020037005b
:100440000000200001002000810f70000100320038
:100450000f000700000020000000e0000200320052
:10046000000002000000000052080200000000002e
:100470000040da000000fe00200020000000e00044
:1004800002003200100020009001880000000600e9
:10049000a1028800800478000000eb001f003700f4
:1004a000e284440054a0b4009905ba00e2844400f8
:1004b00054a0b4009906ba00e284440054a0b400e9
:1004c0000006eb00476fde00fd07b200ae018800ba
:1004d000636ce10003003a000ad801000000eb0061
:1004e0000e003700606ce10008003a00004deb00a0
:1004f0000a05e800020039003420ec000af0a000f0
:100500008b05e900f9ff3e00040037006168e10057
:10051000010032000086eb000b00070019c7ba008b
:100520000e04e0001905ba0003003a000a00e000da
:10053000dbff3a0000000600fe07b200ae028800b2
:100540008a047800f5ff37000cd0a300e20f4d00bd
:100550001c00390089027800354dba000a05e80010
:10056000020039003420ec000af0a0008b05e900fd
:100570000f003200254dba000a05e80002003900dc
:100580003420ec000af0a0008b05e90008003200de
:100590000c00e0000600320015cdba000a05e800a4
:1005a000020039003420ec000af0a0008b05e900bd
:1005b0008984e80054a0b4000b00e000e2ff3a0098
:1005c000000006009902ba00055d78008b05e9007d
:1005d000f7ff3200c82ade00055d78008b05e900d0
:1005e000f3ff32000c00e000f1ff320019ddba0029
:1005f000eeff3700809fbe000000fa000108a9004e
:1006000021718000004020000080600000f0a70001
:100610000000ea000000e9004f00de000040780022
:100620000080fb00610060004a00dd002171800055
:1006300001a0a100010070002071880000d0bf005f
:100640000014a00000f0b7000080fa004f00be00c8
:1006500000400600809fbe000000fa000068a9006c
:1006600021738000000420000080600000f0a700db
:100670000000ea000000e9004f00de0000407800c2
:100680000080fb00610060004600dd0021738000f7
:100690000160a100010070002073880000d0bf003d
:1006a0000004a00000f0b7000080fa004f00be0078
:1006b000004006000040da000000fe0000000500d7
:1006c000889fbe008a9fbe008c1f7800980007009c
:1006d0009f00330003866c006450e1002e0032005e
:1006e0006420e100330032006150e1002f0032004d
:1006f0006120e1003100320085855500eb07b00034
:100700000900200008042000050037000804440008
:1007100089844c000a0031000603430087834b00a4
:100720000001530081815b00f8ff33000203be002b
:100730000800a0000804440089844c00f6ff39003a
:10074000c639dd0083017300010032001300200070
:100750008904d1000884d3000998a3000500320061
:100760000800a7000300a0008904d1000884d3007a
:100770008b05e8008904d1000884d3000001eb0058
:100780000281d2002f00070001f0a1000cf0a700a9
:1007900001f0a000770037006420e100790032000a
:1007a0000801be000200be00f7ff37006120e10033
:1007b000740032006000b800f3ff37000000200032
:1007c00001f82700f0ff370014002000a4003700d4
:1007d000f4ff2f00a20037000001be003f00070019
:1007e0000470a70003f0a10003f8a30013003a006f
:1007f0006509b10010003200090035006928e100e8
:100800000200350001002800000005000000400043
:10081000818048008502e900fcff3a0000000600e4
:10082000f88f4200050035008100d1000080d30020
:100830008502e800fcff3a00000006008000eb00a3
:100840000000050081002000618055000b003d0084
:100850000b00200061fe2f000100e1001d003400ac
:1008600082817100610164008904d1000884d30091
:100870000000e800faff3a00710020006100640007
:1008800003007000020060000900320061044400af
:10089000e0844c000988a500050032008b05e800c3
:1008a0006808e10002003a008904d1000884d300fe
:1008b000f20f20000258e10005003d00c75ddd0099
:1008c000f907b20089807500080078000000060072
:1008d0000bf827008b00780000000500c70ade0037
:1008e000f107b200f50fb20008003200e1cf42007c
:1008f000020032000170a00024000500810f70008a
:10090000010032000408050044000500810f70005a
:1009100002003a00140005008502e90000004000d2
:1009200081c04800fcff3b000170a00024000500ce
:100930000004be00e9ff07000003be000405be007e
:100940000200be00e5ff0700844f750000000600ae
:100950000200be006450e100050036006420e100a2
:10096000020036000968a30001003a000800be003a
:100970000160a0004f0678004f05be004f04be0086
:1009800000000600f0ff2f00f1ff2700f9ff3700fd
:10099000889fbe008a9fbe008c1f7800e4ff07007e
:1009a000ebff330003866c006450e100240032004a
:1009b0006420e100270032006150e1002200320093
:1009c0006120e100210032008b854200eb07b1007d
:1009d0000134b800003ab8000804420089844a0093
:1009e000013ab8000030b8008880400009014a0090
:1009f00004003300000040008180480002014900eb
:100a00008b05e900c909dd00830170000100320097
:100a100013002000c814de004814dd004709de0082
:100a20001200b200c808de000884700085ff0700cd
:100a300001f0a1000cf0a70001f0a000cdff3700ed
:100a40006120e100cfff32000801be000200be00bd
:100a5000f7ff37006150e100fcff3a00c9ff3700a3
:100a6000889fbe008a9fbe00841f7800b0ff0700e9
:100a70004f00780011003300f0ff2f00838f6c00cf
:100a800006003b00040565000a00a70008003700c7
:100a900009f0a6001000200008003700820f540063
:100aa000838f5c00030039001000200001003e002d
:100ab0000000200009f0a7000000ea004f05be007a
:0c0ac0004f04be000000e0000000060033
:020000040000fa
:100acc000000fa001160800080ff2f0000806000a1
:100adc001060880000fa20002060880023aca80079
:100aec00238ca80011618000f03f2f000080600073
:100afc0000a0a00010618800300020002061880058
:100b0c00c3aca800c38ca80011668000f03f2f0076
:100b1c000080600000a0a00010668800300020005b
:100b2c002066880001eca8000080fa000000060096
:100b3c000800fa00881f7800008fbe00220798007a
:100b4c00330798001e0178009e01900052808800a7
:100b5c006380880018c0b3006011b8001e007800d4
:100b6c009e00900017ff07000000e00001003d0010
:100b7c000044eb00084078000004a2000080fb0059
:100b8c0000407800614060000080fb006100600064
:100b9c004e00dd001161800001e0a1000100700039
:100bac001061880018c0b3006011b8001e007800f6
:100bbc009e00900003ff07000000e00001003d00d4
:100bcc000044eb000880fb004f00dd001161800049
:100bdc0001f0a100010070001061880018c0b30082
:100bec006011b8001e0078009e009000f5fe070012
:100bfc000000e00001003d000044eb000804e000b0
:100c0c000200320015eea8000100370015cea80036
:100c1c0050808000618080000200200003222400ac
:100c2c0058ff070042000700e8fe070000007800ac
:100c3c00306188002e019000be01900092808800e7
:100c4c00a380880018c0b3006011b8002e0090007b
:100c5c00be009000dbfe07000000e00001003d003c
:100c6c000044eb00084078000004a2000080fb0068
:100c7c0000407800614060000080fb006100600073
:100c8c004e00dd001166800001e0a1000100700043
:100c9c001066880018c0b3006011b8002e009000d8
:100cac00be009000c7fe07000000e00001003d0000
:100cbc000044eb000880fb004f00dd001166800053
:100ccc0001f0a100010070001066880018c0b3008c
:100cdc006011b8002e009000be009000b9fe070015
:100cec000000e00001003d000044eb000804e000bf
:100cfc000200320024cea8000100370024eea80028
:100d0c0090808000a180800002002000032224003b
:100d1c001cff070006000700acfe0700000078006f
:100d2c00306688004f0478000080fa00000006004e
:100d3c000400fa00881f7800008fbe0018c0b300b2
:100d4c006011b8001e0078009e0090009dfe070008
:100d5c000000e00001003d000044eb000804e0004e
:100d6c00030032001e0078009e0090000300370044
:100d7c001e0078009e00900001f0a2004f04780045
:100d8c000080fa00000006000800fa00881f7800b6
:100d9c00008fbe00220798003307980018c0b300dc
:100dac002e019000be0190001e0078009e00900065
:100dbc0084fe07000000e00001003c000044eb0052
:100dcc000804e000030032001e0078009e00900032
:100ddc00020037002e009000be0090004f047800f7
:100dec000080fa00000006000800fa00881f780056
:100dfc00008fbe00220798003307980018c0b3007c
:100e0c002e019000be0190001e0078009e00900004
:100e1c006afe07000000e000010035000044eb0012
:100e2c000804e000030032001e0078009e009000d1
:100e3c00020037002e009000be0090004f04780096
:100e4c000080fa00000006000c00fa00881f7800f1
:100e5c00008fbe00220798003307980044079800c3
:100e6c005507980018c0b3004e019000de019000a9
:100e7c001e0078009e00900052fe07000000e0006b
:100e8c0001003c000044eb000804e00004003200c8
:100e9c004e019000de019000028fbe000e00370064
:100eac0018c0b3002e019000be0190001e00780007
:100ebc009e00900041fe07000000e000010035009c
:100ecc000044eb000804e000030032002e01900007
:100edc00be019000028fbe001e0078009e009000a4
:100eec004f0478000080fa00000006000400fa00ad
:100efc00008fbe00b2fd2000930424001e00780079
:100f0c009e009000ebfd07000200200043332400fc
:100f1c009cfe07000080fa00000006000400fa00a6
:100f2c00008fbe00b2fd2000930424001e00780048
:100f3c009e00900093fe0700020020004333240023
:100f4c00dcfd07000080fa00000006000000fa003b
:100f5c00f0032000303a8800213a8000f0f32f0093
:100f6c0000806000203a8800213a800000fe2f00ab
:100f7c00008060000000a000203a880012002000d1
:100f8c0080072000a10920003374200080497800dc
:100f9c008149780082497800103a8000000178007d
:100fac000200a000600420007105200023742000c2
:100fbc00804978008149780082497800000000005f
:100fcc00113a8000000027008080600000002100a2
:100fdc00808f5000faff3a0000000000113a8000a8
:100fec0000022000008060000000e000fbff3200e7
:100ffc000080fa00000006000000fa0013e1a900ce
:10100c0011e1a9001061a8001021a900810880003d
:10101c00f0fc2f0000806000800888000a21ef009f
:10102c000621ef00202620007008880000a0250073
:10103c00600888002142800080ff2f000080600043
:10104c000000a000204288000108a9002108a80087
:10105c0011e1a8000080fa00000006000000fa0070
:10106c0005e1a90021088000f0fc2f000080600041
:10107c000050a000200888000421a900a0862100af
:10108c00100888000068a9002068a80005e1a800e5
:10109c000080fa00000006000000fa00abff070019
:1010ac001400070086fe0700d3ff07000200200093
:1010bc0003222c000000200001222c009cfe0700c3
:1010cc00010037000000000000d0bf000080fb00d2
:1010dc00620060000000e000faff32000200200015
:1010ec00031f240000002000011f240090fe0700b5
:1010fc00f5ff37000000fa000e2eef001e2eef0059
:10110c002e2eef003e2eef004e2eef005e2eef0047
:10111c006e2eef00214ea90060cea90060eea90052
:10112c0011cea90011eea90020eea90020cea90035
:08113c000080fa00000006002b
:020000040000fa
:1011440000100000020000008000000002100000f7
:1011540002000000820000001400000004100000df
:0c116400120000008000000000000000ed
:020000040000fa
:02000004000af0
:04afe000cfff00009f
:020000040000fa
:02000004000af0
:04afe400ffff00006b
:020000040000fa
:02000004000af0
:04afe8007fff0000e7
:020000040000fa
:02000004000af0
:04afec005fff000003
:020000040000fa
:02000004000af0
:04aff00038ff000026
:020000040000fa
:02000004000af0
:04aff400ffff00005b
:00000001FF
